0029029070999991901011020004+64333+023450FM-12+000599999V0202301N013919999999N0000001N9-00441+99999101381ADDGF100991999999999999999999
0029029070999991901102506004+64333+023450FM-12+000599999V0201801N011819999999N0000001N9+00831+99999101671ADDGF106991999999999999999999
0035029070999991901102513004+64333+023450FM-12+000599999V0202301N015919999999N0000001N9+00781+99999101311ADDGF108991999999999999999999MW1621
0029029070999991901102520004+64333+023450FM-12+000599999V0202301N020119999999N0000001N9+00781+99999101481ADDGF108991999999999999999999
0029029070999991901102506004+64333+023450FM-12+000599999V0201801N011819999999N0000001N9+00831+99999101671ADDGF106991999999999999999999
0035029070999991901102513004+64333+023450FM-12+000599999V0202301N015919999999N0000001N9+00781+99999101311ADDGF108991999999999999999999MW1621
0029029070999991901102520004+64333+023450FM-12+000599999V0202301N020119999999N0000001N9+00781+99999101481ADDGF108991999999999999999999
0029029070999991901102506004+64333+023450FM-12+000599999V0201801N011819999999N0000001N9+00831+99999101671ADDGF106991999999999999999999
0035029070999991901102513004+64333+023450FM-12+000599999V0202301N015919999999N0000001N9+00781+99999101311ADDGF108991999999999999999999MW1621
0029029070999991901102520004+64333+023450FM-12+000599999V0202301N020119999999N0000001N9+00781+99999101481ADDGF108991999999999999999999
0029029070999991901103006004+64333+023450FM-12+000599999V0203601N020119999999N0000001N9+00611+99999101301ADDGF100991999999999999999999
0029029070999991901103013004+64333+023450FM-12+000599999V0203401N020119999999N0000001N9+00561+99999101881ADDGF106991999999999999999999
0035029070999991901103020004+64333+023450FM-12+000599999V0203401N020119999999N0000001N9+00391+99999102301ADDGF106991999999999999999999MW1891
0029029070999991901103006004+64333+023450FM-12+000599999V0203601N020119999999N0000001N9+00611+99999101301ADDGF100991999999999999999999
0029029070999991901103013004+64333+023450FM-12+000599999V0203401N020119999999N0000001N9+00561+99999101881ADDGF106991999999999999999999
0035029070999991901103020004+64333+023450FM-12+000599999V0203401N020119999999N0000001N9+00391+99999102301ADDGF106991999999999999999999MW1891
0029029070999991901103006004+64333+023450FM-12+000599999V0203601N020119999999N0000001N9+00611+99999101301ADDGF100991999999999999999999
0029029070999991901103013004+64333+023450FM-12+000599999V0203401N020119999999N0000001N9+00561+99999101881ADDGF106991999999999999999999
0035029070999991901103020004+64333+023450FM-12+000599999V0203401N020119999999N0000001N9+00391+99999102301ADDGF106991999999999999999999MW1891
0029029070999991901053006004+64333+023450FM-12+000599999V0209991C000019999999N0000001N9+00441+99999101471ADDGF104991999999999999999999
0029029070999991901053013004+64333+023450FM-12+000599999V0202501N004119999999N0000001N9+00501+99999101281ADDGF103991999999999999999999
0029029070999991901053020004+64333+023450FM-12+000599999V0202501N002119999999N0000001N9+00331+99999101271ADDGF102991999999999999999999
0029029070999991901053006004+64333+023450FM-12+000599999V0209991C000019999999N0000001N9+00441+99999101471ADDGF104991999999999999999999
0029029070999991901053013004+64333+023450FM-12+000599999V0202501N004119999999N0000001N9+00501+99999101281ADDGF103991999999999999999999
0029029070999991901053020004+64333+023450FM-12+000599999V0202501N002119999999N0000001N9+00331+99999101271ADDGF102991999999999999999999
0029029070999991901053006004+64333+023450FM-12+000599999V0209991C000019999999N0000001N9+00441+99999101471ADDGF104991999999999999999999
0029029070999991901053013004+64333+023450FM-12+000599999V0202501N004119999999N0000001N9+00501+99999101281ADDGF103991999999999999999999
0029029070999991901053020004+64333+023450FM-12+000599999V0202501N002119999999N0000001N9+00331+99999101271ADDGF102991999999999999999999
0029029070999991901061006004+64333+023450FM-12+000599999V0201601N006219999999N0000001N9+01561+99999101261ADDGF100991999999999999999999
0029029070999991901061013004+64333+023450FM-12+000599999V0202701N006219999999N0000001N9+01171+99999101141ADDGF108991999999999999999999
0029029070999991901061020004+64333+023450FM-12+000599999V0209991C000019999999N0000001N9+01171+99999101061ADDGF108991999999999999999999
0029029070999991901061706004+64333+023450FM-12+000599999V0209991C000019999999N0000001N9+00781+99999101471ADDGF100991999999999999999999
0029029070999991901061713004+64333+023450FM-12+000599999V0209991C000019999999N0000001N9+01111+99999101671ADDGF100991999999999999999999
0029029070999991901061720004+64333+023450FM-12+000599999V0209991C000019999999N0000001N9+00831+99999101941ADDGF100991999999999999999999
0029029070999991901010620004+64333+023450FM-12+000599999V0203201N002119999999N0000001N9-00111+99999103191ADDGF100991999999999999999999
0029029070999991901063006004+64333+023450FM-12+000599999V0201801N008219999999N0000001N9+01061+99999102321ADDGF103991999999999999999999
0029029070999991901063013004+64333+023450FM-12+000599999V0202301N006219999999N0000001N9+01281+99999102031ADDGF108991999999999999999999
0029029070999991901063020004+64333+023450FM-12+000599999V0202301N002119999999N0000001N9+01171+99999101911ADDGF103991999999999999999999
0029029070999991901072006004+64333+023450FM-12+000599999V0202701N006219999999N0000001N9+01831+99999102841ADDGF101991999999999999999999
0029029070999991901072013004+64333+023450FM-12+000599999V0202301N004119999999N0000001N9+02111+99999102711ADDGF100991999999999999999999
0029029070999991901072020004+64333+023450FM-12+000599999V0201801N002119999999N0000001N9+01781+99999102541ADDGF102991999999999999999999
0029029070999991901082006004+64333+023450FM-12+000599999V0202501N013919999999N0000001N9+01441+99999101001ADDGF102991999999999999999999
0029029070999991901082013004+64333+023450FM-12+000599999V0202701N006219999999N0000001N9+01561+99999101311ADDGF102991999999999999999999
0029029070999991901082020004+64333+023450FM-12+000599999V0203601N002119999999N0000001N9+01391+99999101461ADDGF106991999999999999999999
0029029070999991901083006004+64333+023450FM-12+000599999V0200901N008219999999N0000001N9+01001+99999100871ADDGF104991999999999999999999
0029029070999991901083013004+64333+023450FM-12+000599999V0203601N004119999999N0000001N9+01331+99999100921ADDGF103991999999999999999999
0029029070999991901083020004+64333+023450FM-12+000599999V0200201N008219999999N0000001N9+01221+99999100861ADDGF102991999999999999999999
0029029070999991901103006004+64333+023450FM-12+000599999V0203601N020119999999N0000001N9+00611+99999101301ADDGF100991999999999999999999
0029029070999991901103013004+64333+023450FM-12+000599999V0203401N020119999999N0000001N9+00561+99999101881ADDGF106991999999999999999999
0035029070999991901103020004+64333+023450FM-12+000599999V0203401N020119999999N0000001N9+00391+99999102301ADDGF106991999999999999999999MW1891
0035029070999991901121006004+64333+023450FM-12+000599999V0200501N015919999999N0000001N9-00891+99999098741ADDGF108991999999999999999999MW1721
0035029070999991901121013004+64333+023450FM-12+000599999V0200501N011819999999N0000001N9-00781+99999098821ADDGF108991999999999999999999MW1721
0035029070999991901121020004+64333+023450FM-12+000599999V0200501N020119999999N0000001N9-00611+99999098901ADDGF108991999999999999999999MW1721
0029029070999991901122006004+64333+023450FM-12+000599999V0201401N009819999999N0000001N9-00671+99999101701ADDGF108991999999999999999999
0029029070999991901122013004+64333+023450FM-12+000599999V0209991C000019999999N0000001N9-00441+99999101751ADDGF108991999999999999999999
0029029070999991901122020004+64333+023450FM-12+000599999V0209991C000019999999N0000001N9-00441+99999101801ADDGF108991999999999999999999
0029029500999991901011520004+61483+021350FM-12+000699999V0202501N008219999999N0000001N9-00111+99999102281ADDGF100991999999999999999999
